{
  "contractName": "TariqToken3B",
  "abi": [
    {
      "inputs": [],
      "stateMutability": "nonpayable",
      "type": "constructor"
    },
    {
      "anonymous": false,
      "inputs": [
        {
          "indexed": true,
          "internalType": "address",
          "name": "owner",
          "type": "address"
        },
        {
          "indexed": true,
          "internalType": "address",
          "name": "spender",
          "type": "address"
        },
        {
          "indexed": false,
          "internalType": "uint256",
          "name": "value",
          "type": "uint256"
        }
      ],
      "name": "Approval",
      "type": "event"
    },
    {
      "anonymous": false,
      "inputs": [
        {
          "indexed": true,
          "internalType": "address",
          "name": "previousOwner",
          "type": "address"
        },
        {
          "indexed": true,
          "internalType": "address",
          "name": "newOwner",
          "type": "address"
        }
      ],
      "name": "OwnershipTransferred",
      "type": "event"
    },
    {
      "anonymous": false,
      "inputs": [
        {
          "indexed": true,
          "internalType": "address",
          "name": "from",
          "type": "address"
        },
        {
          "indexed": true,
          "internalType": "address",
          "name": "to",
          "type": "address"
        },
        {
          "indexed": false,
          "internalType": "uint256",
          "name": "value",
          "type": "uint256"
        }
      ],
      "name": "Transfer",
      "type": "event"
    },
    {
      "stateMutability": "payable",
      "type": "fallback"
    },
    {
      "inputs": [],
      "name": "MINIMUM_DELAY",
      "outputs": [
        {
          "internalType": "uint256",
          "name": "",
          "type": "uint256"
        }
      ],
      "stateMutability": "view",
      "type": "function"
    },
    {
      "inputs": [
        {
          "internalType": "address",
          "name": "owner",
          "type": "address"
        },
        {
          "internalType": "address",
          "name": "spender",
          "type": "address"
        }
      ],
      "name": "allowance",
      "outputs": [
        {
          "internalType": "uint256",
          "name": "",
          "type": "uint256"
        }
      ],
      "stateMutability": "view",
      "type": "function"
    },
    {
      "inputs": [
        {
          "internalType": "address",
          "name": "spender",
          "type": "address"
        },
        {
          "internalType": "uint256",
          "name": "amount",
          "type": "uint256"
        }
      ],
      "name": "approve",
      "outputs": [
        {
          "internalType": "bool",
          "name": "",
          "type": "bool"
        }
      ],
      "stateMutability": "nonpayable",
      "type": "function"
    },
    {
      "inputs": [
        {
          "internalType": "address",
          "name": "account",
          "type": "address"
        }
      ],
      "name": "balanceOf",
      "outputs": [
        {
          "internalType": "uint256",
          "name": "",
          "type": "uint256"
        }
      ],
      "stateMutability": "view",
      "type": "function"
    },
    {
      "inputs": [],
      "name": "decimals",
      "outputs": [
        {
          "internalType": "uint8",
          "name": "",
          "type": "uint8"
        }
      ],
      "stateMutability": "view",
      "type": "function"
    },
    {
      "inputs": [
        {
          "internalType": "address",
          "name": "spender",
          "type": "address"
        },
        {
          "internalType": "uint256",
          "name": "subtractedValue",
          "type": "uint256"
        }
      ],
      "name": "decreaseAllowance",
      "outputs": [
        {
          "internalType": "bool",
          "name": "",
          "type": "bool"
        }
      ],
      "stateMutability": "nonpayable",
      "type": "function"
    },
    {
      "inputs": [
        {
          "internalType": "address",
          "name": "spender",
          "type": "address"
        },
        {
          "internalType": "uint256",
          "name": "addedValue",
          "type": "uint256"
        }
      ],
      "name": "increaseAllowance",
      "outputs": [
        {
          "internalType": "bool",
          "name": "",
          "type": "bool"
        }
      ],
      "stateMutability": "nonpayable",
      "type": "function"
    },
    {
      "inputs": [],
      "name": "name",
      "outputs": [
        {
          "internalType": "string",
          "name": "",
          "type": "string"
        }
      ],
      "stateMutability": "view",
      "type": "function"
    },
    {
      "inputs": [],
      "name": "owner",
      "outputs": [
        {
          "internalType": "address",
          "name": "",
          "type": "address"
        }
      ],
      "stateMutability": "view",
      "type": "function"
    },
    {
      "inputs": [],
      "name": "renounceOwnership",
      "outputs": [],
      "stateMutability": "nonpayable",
      "type": "function"
    },
    {
      "inputs": [],
      "name": "symbol",
      "outputs": [
        {
          "internalType": "string",
          "name": "",
          "type": "string"
        }
      ],
      "stateMutability": "view",
      "type": "function"
    },
    {
      "inputs": [],
      "name": "totalSupply",
      "outputs": [
        {
          "internalType": "uint256",
          "name": "",
          "type": "uint256"
        }
      ],
      "stateMutability": "view",
      "type": "function"
    },
    {
      "inputs": [
        {
          "internalType": "address",
          "name": "sender",
          "type": "address"
        },
        {
          "internalType": "address",
          "name": "recipient",
          "type": "address"
        },
        {
          "internalType": "uint256",
          "name": "amount",
          "type": "uint256"
        }
      ],
      "name": "transferFrom",
      "outputs": [
        {
          "internalType": "bool",
          "name": "",
          "type": "bool"
        }
      ],
      "stateMutability": "nonpayable",
      "type": "function"
    },
    {
      "inputs": [
        {
          "internalType": "address",
          "name": "newOwner",
          "type": "address"
        }
      ],
      "name": "transferOwnership",
      "outputs": [],
      "stateMutability": "nonpayable",
      "type": "function"
    },
    {
      "stateMutability": "payable",
      "type": "receive"
    },
    {
      "inputs": [],
      "name": "cap",
      "outputs": [
        {
          "internalType": "uint256",
          "name": "",
          "type": "uint256"
        }
      ],
      "stateMutability": "view",
      "type": "function"
    },
    {
      "inputs": [
        {
          "internalType": "address",
          "name": "account",
          "type": "address"
        },
        {
          "internalType": "uint256",
          "name": "amount",
          "type": "uint256"
        }
      ],
      "name": "mint",
      "outputs": [],
      "stateMutability": "nonpayable",
      "type": "function"
    },
    {
      "inputs": [
        {
          "internalType": "address",
          "name": "recipient",
          "type": "address"
        },
        {
          "internalType": "uint256",
          "name": "amount",
          "type": "uint256"
        }
      ],
      "name": "transfer",
      "outputs": [
        {
          "internalType": "bool",
          "name": "",
          "type": "bool"
        }
      ],
      "stateMutability": "nonpayable",
      "type": "function"
    },
    {
      "inputs": [],
      "name": "buyToken",
      "outputs": [],
      "stateMutability": "payable",
      "type": "function"
    },
    {
      "inputs": [
        {
          "internalType": "uint24",
          "name": "_rate",
          "type": "uint24"
        }
      ],
      "name": "priceAdjust",
      "outputs": [],
      "stateMutability": "nonpayable",
      "type": "function"
    },
    {
      "inputs": [
        {
          "internalType": "uint256",
          "name": "_tokens",
          "type": "uint256"
        }
      ],
      "name": "returnToken",
      "outputs": [],
      "stateMutability": "nonpayable",
      "type": "function"
    },
    {
      "inputs": [],
      "name": "viewCurRate",
      "outputs": [
        {
          "internalType": "uint256",
          "name": "",
          "type": "uint256"
        }
      ],
      "stateMutability": "view",
      "type": "function"
    },
    {
      "inputs": [],
      "name": "contractEthers",
      "outputs": [
        {
          "internalType": "uint256",
          "name": "",
          "type": "uint256"
        }
      ],
      "stateMutability": "view",
      "type": "function"
    },
    {
      "inputs": [
        {
          "internalType": "address",
          "name": "_approver",
          "type": "address"
        }
      ],
      "name": "delegatePriceApproval",
      "outputs": [],
      "stateMutability": "nonpayable",
      "type": "function"
    },
    {
      "inputs": [
        {
          "internalType": "address",
          "name": "_approver",
          "type": "address"
        }
      ],
      "name": "revokePriceApproval",
      "outputs": [],
      "stateMutability": "nonpayable",
      "type": "function"
    }
  ],
  "bytecode": "0x608060405262000014620001c760201b60201c565b600a62000022919062000610565b621e84806200003291906200074d565b6007553480156200004257600080fd5b506040518060400160405280600981526020017f50616b20527570656500000000000000000000000000000000000000000000008152506040518060400160405280600381526020017f504b520000000000000000000000000000000000000000000000000000000000815250620000cf620000c3620001d060201b60201c565b620001d860201b60201c565b8160049080519060200190620000e792919062000420565b5080600590805190602001906200010092919062000420565b505050620001423362000118620001c760201b60201c565b600a62000126919062000610565b621e84806200013691906200074d565b6200029c60201b60201c565b426008819055506064600960006101000a81548162ffffff021916908362ffffff1602179055506001600a60003373ffffffffffffffffffffffffffffffffffffffff1673ffffffffffffffffffffffffffffffffffffffff16815260200190815260200160002060006101000a81548160ff0219169083151502179055506200088f565b60006012905090565b600033905090565b60008060009054906101000a900473ffffffffffffffffffffffffffffffffffffffff169050816000806101000a81548173ffffffffffffffffffffffffffffffffffffffff021916908373ffffffffffffffffffffffffffffffffffffffff1602179055508173ffffffffffffffffffffffffffffffffffffffff168173ffffffffffffffffffffffffffffffffffffffff167f8be0079c531659141344cd1fd0a4f28419497f9722a3daafe3b4186f6b6457e060405160405180910390a35050565b600073ffffffffffffffffffffffffffffffffffffffff168273ffffffffffffffffffffffffffffffffffffffff1614156200030f576040517f08c379a0000000000000000000000000000000000000000000000000000000008152600401620003069062000508565b60405180910390fd5b62000323600083836200041660201b60201c565b806003600082825462000337919062000558565b9250508190555080600160008473ffffffffffffffffffffffffffffffffffffffff1673ffffffffffffffffffffffffffffffffffffffff16815260200190815260200160002060008282546200038f919062000558565b925050819055508173ffffffffffffffffffffffffffffffffffffffff16600073ffffffffffffffffffffffffffffffffffffffff167fddf252ad1be2c89b69c2b068fc378daa952ba7f163c4a11628f55a4df523b3ef83604051620003f691906200052a565b60405180910390a362000412600083836200041b60201b60201c565b5050565b505050565b505050565b8280546200042e90620007c5565b90600052602060002090601f0160209004810192826200045257600085556200049e565b82601f106200046d57805160ff19168380011785556200049e565b828001600101855582156200049e579182015b828111156200049d57825182559160200191906001019062000480565b5b509050620004ad9190620004b1565b5090565b5b80821115620004cc576000816000905550600101620004b2565b5090565b6000620004df601f8362000547565b9150620004ec8262000866565b602082019050919050565b6200050281620007ae565b82525050565b600060208201905081810360008301526200052381620004d0565b9050919050565b6000602082019050620005416000830184620004f7565b92915050565b600082825260208201905092915050565b60006200056582620007ae565b91506200057283620007ae565b9250827fffffffffffffffffffffffffffffffffffffffffffffffffffffffffffffffff03821115620005aa57620005a9620007fb565b5b828201905092915050565b6000808291508390505b60018511156200060757808604811115620005df57620005de620007fb565b5b6001851615620005ef5780820291505b8081029050620005ff8562000859565b9450620005bf565b94509492505050565b60006200061d82620007ae565b91506200062a83620007b8565b9250620006597fffffffffffffffffffffffffffffffffffffffffffffffffffffffffffffffff848462000661565b905092915050565b60008262000673576001905062000746565b8162000683576000905062000746565b81600181146200069c5760028114620006a757620006dd565b600191505062000746565b60ff841115620006bc57620006bb620007fb565b5b8360020a915084821115620006d657620006d5620007fb565b5b5062000746565b5060208310610133831016604e8410600b8410161715620007175782820a905083811115620007115762000710620007fb565b5b62000746565b620007268484846001620005b5565b9250905081840481111562000740576200073f620007fb565b5b81810290505b9392505050565b60006200075a82620007ae565b91506200076783620007ae565b9250817fffffffffffffffffffffffffffffffffffffffffffffffffffffffffffffffff0483118215151615620007a357620007a2620007fb565b5b828202905092915050565b6000819050919050565b600060ff82169050919050565b60006002820490506001821680620007de57607f821691505b60208210811415620007f557620007f46200082a565b5b50919050565b7f4e487b7100000000000000000000000000000000000000000000000000000000600052601160045260246000fd5b7f4e487b7100000000000000000000000000000000000000000000000000000000600052602260045260246000fd5b60008160011c9050919050565b7f45524332303a206d696e7420746f20746865207a65726f206164647265737300600082015250565b612478806200089f6000396000f3fe60806040526004361061014f5760003560e01c806395d89b41116100b6578063b0f0753d1161006f578063b0f0753d146104c2578063b1b43ae5146104ed578063c7a86c9b14610518578063dd62ed3e14610543578063f2fde38b14610580578063fe55b4ab146105a957610156565b806395d89b41146103c1578063a457c2d7146103ec578063a482171914610429578063a775e50514610433578063a9059cbb1461045c578063a9ca13fc1461049957610156565b8063395093511161010857806339509351146102b357806340c10f19146102f05780636178efee1461031957806370a0823114610342578063715018a61461037f5780638da5cb5b1461039657610156565b806306fdde031461018d578063095ea7b3146101b857806318160ddd146101f557806323b872dd14610220578063313ce5671461025d578063355274ea1461028857610156565b3661015657005b600034111561018b5761018a33600960009054906101000a900462ffffff1662ffffff16346101859190611e57565b6105d2565b5b005b34801561019957600080fd5b506101a2610733565b6040516101af9190611b9c565b60405180910390f35b3480156101c457600080fd5b506101df60048036038101906101da919061186d565b6107c5565b6040516101ec9190611b81565b60405180910390f35b34801561020157600080fd5b5061020a6107e3565b6040516102179190611d7e565b60405180910390f35b34801561022c57600080fd5b506102476004803603810190610242919061181a565b6107ed565b6040516102549190611b81565b60405180910390f35b34801561026957600080fd5b506102726108e5565b60405161027f9190611d99565b60405180910390f35b34801561029457600080fd5b5061029d6108ee565b6040516102aa9190611d7e565b60405180910390f35b3480156102bf57600080fd5b506102da60048036038101906102d5919061186d565b6108f8565b6040516102e79190611b81565b60405180910390f35b3480156102fc57600080fd5b506103176004803603810190610312919061186d565b6109a4565b005b34801561032557600080fd5b50610340600480360381019061033b91906118da565b610a0e565b005b34801561034e57600080fd5b50610369600480360381019061036491906117ad565b610adc565b6040516103769190611d7e565b60405180910390f35b34801561038b57600080fd5b50610394610b25565b005b3480156103a257600080fd5b506103ab610bad565b6040516103b89190611b66565b60405180910390f35b3480156103cd57600080fd5b506103d6610bd6565b6040516103e39190611b9c565b60405180910390f35b3480156103f857600080fd5b50610413600480360381019061040e919061186d565b610c68565b6040516104209190611b81565b60405180910390f35b610431610d53565b005b34801561043f57600080fd5b5061045a600480360381019061045591906117ad565b610d80565b005b34801561046857600080fd5b50610483600480360381019061047e919061186d565b610e57565b6040516104909190611b81565b60405180910390f35b3480156104a557600080fd5b506104c060048036038101906104bb91906117ad565b610e8e565b005b3480156104ce57600080fd5b506104d7610ff1565b6040516104e49190611d7e565b60405180910390f35b3480156104f957600080fd5b50610502610ff9565b60405161050f9190611d7e565b60405180910390f35b34801561052457600080fd5b5061052d610ffe565b60405161053a9190611d7e565b60405180910390f35b34801561054f57600080fd5b5061056a600480360381019061056591906117da565b61101c565b6040516105779190611d7e565b60405180910390f35b34801561058c57600080fd5b506105a760048036038101906105a291906117ad565b6110a3565b005b3480156105b557600080fd5b506105d060048036038101906105cb91906118ad565b61119b565b005b600073ffffffffffffffffffffffffffffffffffffffff168273ffffffffffffffffffffffffffffffffffffffff161415610642576040517f08c379a000000000000000000000000000000000000000000000000000000000815260040161063990611d5e565b60405180910390fd5b61064e60008383611249565b80600360008282546106609190611dd0565b9250508190555080600160008473ffffffffffffffffffffffffffffffffffffffff1673ffffffffffffffffffffffffffffffffffffffff16815260200190815260200160002060008282546106b69190611dd0565b925050819055508173ffffffffffffffffffffffffffffffffffffffff16600073ffffffffffffffffffffffffffffffffffffffff167fddf252ad1be2c89b69c2b068fc378daa952ba7f163c4a11628f55a4df523b3ef8360405161071b9190611d7e565b60405180910390a361072f6000838361124e565b5050565b60606004805461074290611f48565b80601f016020809104026020016040519081016040528092919081815260200182805461076e90611f48565b80156107bb5780601f10610790576101008083540402835291602001916107bb565b820191906000526020600020905b81548152906001019060200180831161079e57829003601f168201915b5050505050905090565b60006107d96107d2611253565b848461125b565b6001905092915050565b6000600354905090565b60006107fa848484611426565b6000600260008673ffffffffffffffffffffffffffffffffffffffff1673ffffffffffffffffffffffffffffffffffffffff1681526020019081526020016000206000610845611253565b73ffffffffffffffffffffffffffffffffffffffff1673ffffffffffffffffffffffffffffffffffffffff168152602001908152602001600020549050828110156108c5576040517f08c379a00000000000000000000000000000000000000000000000000000000081526004016108bc90611c9e565b60405180910390fd5b6108d9856108d1611253565b85840361125b565b60019150509392505050565b60006012905090565b6000600754905090565b600061099a610905611253565b848460026000610913611253565b73ffffffffffffffffffffffffffffffffffffffff1673ffffffffffffffffffffffffffffffffffffffff16815260200190815260200160002060008873ffffffffffffffffffffffffffffffffffffffff1673ffffffffffffffffffffffffffffffffffffffff168152602001908152602001600020546109959190611dd0565b61125b565b6001905092915050565b6109ac6108ee565b816109b56107e3565b6109bf9190611dd0565b1115610a00576040517f08c379a00000000000000000000000000000000000000000000000000000000081526004016109f790611c7e565b60405180910390fd5b610a0a82826105d2565b5050565b6000610a1933610adc565b821115610a5b576040517f08c379a0000000000000000000000000000000000000000000000000000000008152600401610a5290611cde565b60405180910390fd5b600960009054906101000a900462ffffff1662ffffff1682610a7d9190611e26565b9050610a90610a8a610bad565b83610e57565b503373ffffffffffffffffffffffffffffffffffffffff166108fc829081150290604051600060405180830381858888f19350505050158015610ad7573d6000803e3d6000fd5b505050565b6000600160008373ffffffffffffffffffffffffffffffffffffffff1673ffffffffffffffffffffffffffffffffffffffff168152602001908152602001600020549050919050565b610b2d611253565b73ffffffffffffffffffffffffffffffffffffffff16610b4b610bad565b73ffffffffffffffffffffffffffffffffffffffff1614610ba1576040517f08c379a0000000000000000000000000000000000000000000000000000000008152600401610b9890611cbe565b60405180910390fd5b610bab60006116aa565b565b60008060009054906101000a900473ffffffffffffffffffffffffffffffffffffffff16905090565b606060058054610be590611f48565b80601f0160208091040260200160405190810160405280929190818152602001828054610c1190611f48565b8015610c5e5780601f10610c3357610100808354040283529160200191610c5e565b820191906000526020600020905b815481529060010190602001808311610c4157829003601f168201915b5050505050905090565b60008060026000610c77611253565b73ffffffffffffffffffffffffffffffffffffffff1673ffffffffffffffffffffffffffffffffffffffff16815260200190815260200160002060008573ffffffffffffffffffffffffffffffffffffffff1673ffffffffffffffffffffffffffffffffffffffff16815260200190815260200160002054905082811015610d34576040517f08c379a0000000000000000000000000000000000000000000000000000000008152600401610d2b90611d3e565b60405180910390fd5b610d48610d3f611253565b8585840361125b565b600191505092915050565b610d7e33600960009054906101000a900462ffffff1662ffffff1634610d799190611e57565b6109a4565b565b610d88611253565b73ffffffffffffffffffffffffffffffffffffffff16610da6610bad565b73ffffffffffffffffffffffffffffffffffffffff1614610dfc576040517f08c379a0000000000000000000000000000000000000000000000000000000008152600401610df390611cbe565b60405180910390fd5b6001600a60008373ffffffffffffffffffffffffffffffffffffffff1673ffffffffffffffffffffffffffffffffffffffff16815260200190815260200160002060006101000a81548160ff02191690831515021790555050565b600080600854610e679190611dd0565b4211610e7257600080fd5b610e84610e7d611253565b8484611426565b6001905092915050565b610e96611253565b73ffffffffffffffffffffffffffffffffffffffff16610eb4610bad565b73ffffffffffffffffffffffffffffffffffffffff1614610f0a576040517f08c379a0000000000000000000000000000000000000000000000000000000008152600401610f0190611cbe565b60405180910390fd5b600a60008273ffffffffffffffffffffffffffffffffffffffff1673ffffffffffffffffffffffffffffffffffffffff16815260200190815260200160002060009054906101000a900460ff16610f96576040517f08c379a0000000000000000000000000000000000000000000000000000000008152600401610f8d90611c5e565b60405180910390fd5b6000600a60008373ffffffffffffffffffffffffffffffffffffffff1673ffffffffffffffffffffffffffffffffffffffff16815260200190815260200160002060006101000a81548160ff02191690831515021790555050565b600047905090565b600081565b6000600960009054906101000a900462ffffff1662ffffff16905090565b6000600260008473ffffffffffffffffffffffffffffffffffffffff1673ffffffffffffffffffffffffffffffffffffffff16815260200190815260200160002060008373ffffffffffffffffffffffffffffffffffffffff1673ffffffffffffffffffffffffffffffffffffffff16815260200190815260200160002054905092915050565b6110ab611253565b73ffffffffffffffffffffffffffffffffffffffff166110c9610bad565b73ffffffffffffffffffffffffffffffffffffffff161461111f576040517f08c379a000000000000000000000000000000000000000000000000000000000815260040161111690611cbe565b60405180910390fd5b600073ffffffffffffffffffffffffffffffffffffffff168173ffffffffffffffffffffffffffffffffffffffff16141561118f576040517f08c379a000000000000000000000000000000000000000000000000000000000815260040161118690611bde565b60405180910390fd5b611198816116aa565b50565b600a60003373ffffffffffffffffffffffffffffffffffffffff1673ffffffffffffffffffffffffffffffffffffffff16815260200190815260200160002060009054906101000a900460ff16611227576040517f08c379a000000000000000000000000000000000000000000000000000000000815260040161121e90611c3e565b60405180910390fd5b80600960006101000a81548162ffffff021916908362ffffff16021790555050565b505050565b505050565b600033905090565b600073ffffffffffffffffffffffffffffffffffffffff168373ffffffffffffffffffffffffffffffffffffffff1614156112cb576040517f08c379a00000000000000000000000000000000000000000000000000000000081526004016112c290611d1e565b60405180910390fd5b600073ffffffffffffffffffffffffffffffffffffffff168273ffffffffffffffffffffffffffffffffffffffff16141561133b576040517f08c379a000000000000000000000000000000000000000000000000000000000815260040161133290611bfe565b60405180910390fd5b80600260008573ffffffffffffffffffffffffffffffffffffffff1673ffffffffffffffffffffffffffffffffffffffff16815260200190815260200160002060008473ffffffffffffffffffffffffffffffffffffffff1673ffffffffffffffffffffffffffffffffffffffff168152602001908152602001600020819055508173ffffffffffffffffffffffffffffffffffffffff168373ffffffffffffffffffffffffffffffffffffffff167f8c5be1e5ebec7d5bd14f71427d1e84f3dd0314c0f7b2291e5b200ac8c7c3b925836040516114199190611d7e565b60405180910390a3505050565b600073ffffffffffffffffffffffffffffffffffffffff168373ffffffffffffffffffffffffffffffffffffffff161415611496576040517f08c379a000000000000000000000000000000000000000000000000000000000815260040161148d90611cfe565b60405180910390fd5b600073ffffffffffffffffffffffffffffffffffffffff168273ffffffffffffffffffffffffffffffffffffffff161415611506576040517f08c379a00000000000000000000000000000000000000000000000000000000081526004016114fd90611bbe565b60405180910390fd5b611511838383611249565b6000600160008573ffffffffffffffffffffffffffffffffffffffff1673ffffffffffffffffffffffffffffffffffffffff16815260200190815260200160002054905081811015611598576040517f08c379a000000000000000000000000000000000000000000000000000000000815260040161158f90611c1e565b60405180910390fd5b818103600160008673ffffffffffffffffffffffffffffffffffffffff1673ffffffffffffffffffffffffffffffffffffffff1681526020019081526020016000208190555081600160008573ffffffffffffffffffffffffffffffffffffffff1673ffffffffffffffffffffffffffffffffffffffff168152602001908152602001600020600082825461162d9190611dd0565b925050819055508273ffffffffffffffffffffffffffffffffffffffff168473ffffffffffffffffffffffffffffffffffffffff167fddf252ad1be2c89b69c2b068fc378daa952ba7f163c4a11628f55a4df523b3ef846040516116919190611d7e565b60405180910390a36116a484848461124e565b50505050565b60008060009054906101000a900473ffffffffffffffffffffffffffffffffffffffff169050816000806101000a81548173ffffffffffffffffffffffffffffffffffffffff021916908373ffffffffffffffffffffffffffffffffffffffff1602179055508173ffffffffffffffffffffffffffffffffffffffff168173ffffffffffffffffffffffffffffffffffffffff167f8be0079c531659141344cd1fd0a4f28419497f9722a3daafe3b4186f6b6457e060405160405180910390a35050565b60008135905061177d816123fd565b92915050565b60008135905061179281612414565b92915050565b6000813590506117a78161242b565b92915050565b6000602082840312156117c3576117c2612007565b5b60006117d18482850161176e565b91505092915050565b600080604083850312156117f1576117f0612007565b5b60006117ff8582860161176e565b92505060206118108582860161176e565b9150509250929050565b60008060006060848603121561183357611832612007565b5b60006118418682870161176e565b93505060206118528682870161176e565b925050604061186386828701611798565b9150509250925092565b6000806040838503121561188457611883612007565b5b60006118928582860161176e565b92505060206118a385828601611798565b9150509250929050565b6000602082840312156118c3576118c2612007565b5b60006118d184828501611783565b91505092915050565b6000602082840312156118f0576118ef612007565b5b60006118fe84828501611798565b91505092915050565b61191081611eb1565b82525050565b61191f81611ec3565b82525050565b600061193082611db4565b61193a8185611dbf565b935061194a818560208601611f15565b6119538161200c565b840191505092915050565b600061196b602383611dbf565b91506119768261201d565b604082019050919050565b600061198e602683611dbf565b91506119998261206c565b604082019050919050565b60006119b1602283611dbf565b91506119bc826120bb565b604082019050919050565b60006119d4602683611dbf565b91506119df8261210a565b604082019050919050565b60006119f7602f83611dbf565b9150611a0282612159565b604082019050919050565b6000611a1a602e83611dbf565b9150611a25826121a8565b604082019050919050565b6000611a3d601f83611dbf565b9150611a48826121f7565b602082019050919050565b6000611a60602883611dbf565b9150611a6b82612220565b604082019050919050565b6000611a83602083611dbf565b9150611a8e8261226f565b602082019050919050565b6000611aa6602c83611dbf565b9150611ab182612298565b604082019050919050565b6000611ac9602583611dbf565b9150611ad4826122e7565b604082019050919050565b6000611aec602483611dbf565b9150611af782612336565b604082019050919050565b6000611b0f602583611dbf565b9150611b1a82612385565b604082019050919050565b6000611b32601f83611dbf565b9150611b3d826123d4565b602082019050919050565b611b5181611efe565b82525050565b611b6081611f08565b82525050565b6000602082019050611b7b6000830184611907565b92915050565b6000602082019050611b966000830184611916565b92915050565b60006020820190508181036000830152611bb68184611925565b905092915050565b60006020820190508181036000830152611bd78161195e565b9050919050565b60006020820190508181036000830152611bf781611981565b9050919050565b60006020820190508181036000830152611c17816119a4565b9050919050565b60006020820190508181036000830152611c37816119c7565b9050919050565b60006020820190508181036000830152611c57816119ea565b9050919050565b60006020820190508181036000830152611c7781611a0d565b9050919050565b60006020820190508181036000830152611c9781611a30565b9050919050565b60006020820190508181036000830152611cb781611a53565b9050919050565b60006020820190508181036000830152611cd781611a76565b9050919050565b60006020820190508181036000830152611cf781611a99565b9050919050565b60006020820190508181036000830152611d1781611abc565b9050919050565b60006020820190508181036000830152611d3781611adf565b9050919050565b60006020820190508181036000830152611d5781611b02565b9050919050565b60006020820190508181036000830152611d7781611b25565b9050919050565b6000602082019050611d936000830184611b48565b92915050565b6000602082019050611dae6000830184611b57565b92915050565b600081519050919050565b600082825260208201905092915050565b6000611ddb82611efe565b9150611de683611efe565b9250827fffffffffffffffffffffffffffffffffffffffffffffffffffffffffffffffff03821115611e1b57611e1a611f7a565b5b828201905092915050565b6000611e3182611efe565b9150611e3c83611efe565b925082611e4c57611e4b611fa9565b5b828204905092915050565b6000611e6282611efe565b9150611e6d83611efe565b9250817fffffffffffffffffffffffffffffffffffffffffffffffffffffffffffffffff0483118215151615611ea657611ea5611f7a565b5b828202905092915050565b6000611ebc82611ecf565b9050919050565b60008115159050919050565b600073ffffffffffffffffffffffffffffffffffffffff82169050919050565b600062ffffff82169050919050565b6000819050919050565b600060ff82169050919050565b60005b83811015611f33578082015181840152602081019050611f18565b83811115611f42576000848401525b50505050565b60006002820490506001821680611f6057607f821691505b60208210811415611f7457611f73611fd8565b5b50919050565b7f4e487b7100000000000000000000000000000000000000000000000000000000600052601160045260246000fd5b7f4e487b7100000000000000000000000000000000000000000000000000000000600052601260045260246000fd5b7f4e487b7100000000000000000000000000000000000000000000000000000000600052602260045260246000fd5b600080fd5b6000601f19601f8301169050919050565b7f45524332303a207472616e7366657220746f20746865207a65726f206164647260008201527f6573730000000000000000000000000000000000000000000000000000000000602082015250565b7f4f776e61626c653a206e6577206f776e657220697320746865207a65726f206160008201527f6464726573730000000000000000000000000000000000000000000000000000602082015250565b7f45524332303a20617070726f766520746f20746865207a65726f20616464726560008201527f7373000000000000000000000000000000000000000000000000000000000000602082015250565b7f45524332303a207472616e7366657220616d6f756e742065786365656473206260008201527f616c616e63650000000000000000000000000000000000000000000000000000602082015250565b7f456974686572204f776e6572206f7220417070726f7665722063616e2063616c60008201527f6c20746869732066756e6374696f6e0000000000000000000000000000000000602082015250565b7f546865207573657220646f65736e2774206578697374206f7220616c7265616460008201527f79206265656e207265766f6b6564000000000000000000000000000000000000602082015250565b7f45524332304361707065643a20546f6b656e2043617020657863656564656400600082015250565b7f45524332303a207472616e7366657220616d6f756e742065786365656473206160008201527f6c6c6f77616e6365000000000000000000000000000000000000000000000000602082015250565b7f4f776e61626c653a2063616c6c6572206973206e6f7420746865206f776e6572600082015250565b7f496e73756666696369656e742042616c616e636520666f72205769746864726160008201527f776c206f6620746f6b656e730000000000000000000000000000000000000000602082015250565b7f45524332303a207472616e736665722066726f6d20746865207a65726f20616460008201527f6472657373000000000000000000000000000000000000000000000000000000602082015250565b7f45524332303a20617070726f76652066726f6d20746865207a65726f2061646460008201527f7265737300000000000000000000000000000000000000000000000000000000602082015250565b7f45524332303a2064656372656173656420616c6c6f77616e63652062656c6f7760008201527f207a65726f000000000000000000000000000000000000000000000000000000602082015250565b7f45524332303a206d696e7420746f20746865207a65726f206164647265737300600082015250565b61240681611eb1565b811461241157600080fd5b50565b61241d81611eef565b811461242857600080fd5b50565b61243481611efe565b811461243f57600080fd5b5056fea2646970667358221220079954a10bdbc3b5d9f43cfb3de0f146e0b0f9019ffbca3e59ec63d757c0b09864736f6c63430008060033",
  "immutableReferences": {},
  "source": "pragma solidity ^0.8.6;\r\n//\"SPDX-License-Identifier: UNLICENSED\"\r\n\r\n/**\r\n * Tariq Saeed \r\n * PIAIC 111569\r\n */\r\n \r\n//if you run these in Remix, the imports will work.\r\nimport \"@openzeppelin/contracts/token/ERC20/ERC20.sol\";\r\nimport \"@openzeppelin/contracts/access/Ownable.sol\";\r\n\r\ncontract TariqToken3B is Ownable, ERC20 {\r\n    uint256 private curSupply;\r\n    uint256 private tokenCap = 2000000*(10**decimals());    //3B.1\r\n    uint256 private contractBirthday;\r\n    uint256 public constant MINIMUM_DELAY = 0; //30 days; setting to zero so that token transfer can be tested\r\n    uint24  private curRate;\r\n    mapping(address => bool) private priceApprovers;\r\n    \r\n    constructor () ERC20(\"Pak Rupee\", \"PKR\") {\r\n        _mint(msg.sender, 2000000*(10**decimals()));\r\n        contractBirthday = block.timestamp;  //3B.2\r\n         curRate = 100;  //setting current conversion of ether to token\r\n         priceApprovers[msg.sender] = true;\r\n    }\r\n\r\n        fallback() external payable {\r\n                    if (msg.value > 0 ) {\r\n            _mint(msg.sender, msg.value * curRate);\r\n        } \r\n        }\r\n        receive() external payable{}\r\n    //3C.2    \r\n    modifier priceAppr() { \r\n        require(priceApprovers[msg.sender], \"Either Owner or Approver can call this function\");\r\n        _; \r\n        \r\n    }\r\n    //3B.1 Shows the toal cap of token  \r\n        function cap() public view virtual returns (uint256) {\r\n        return tokenCap;\r\n    }\r\n        function mint(address account, uint256 amount) public {\r\n        require(ERC20.totalSupply() + amount <= cap(), \"ERC20Capped: Token Cap exceeded\");\r\n        _mint(account, amount);\r\n    }\r\n    //3B.2\r\n    function transfer(address recipient, uint256 amount) public virtual override returns (bool) {\r\n        require(block.timestamp > contractBirthday + MINIMUM_DELAY);\r\n        _transfer(_msgSender(), recipient, amount);\r\n        return true;\r\n    }\r\n    //3A\r\n    function buyToken () payable external {\r\n        mint(msg.sender, msg.value*curRate);\r\n    }\r\n    //3A. There should be an additional method to adjust the price that allows the owner to adjust the price.\r\n    function priceAdjust (uint24 _rate) public priceAppr() {\r\n        curRate = _rate;\r\n        \r\n    }     // 3C.3 The user can return the tokens based on current rate\r\n     function returnToken (uint256 _tokens) external {\r\n        uint256 curValue;\r\n        require(_tokens <= balanceOf(msg.sender), \"Insufficient Balance for Withdrawl of tokens\");\r\n        curValue = _tokens/curRate;\r\n        transfer(owner(), _tokens);\r\n        payable(msg.sender).transfer(curValue);\r\n        \r\n    } //3A\r\n    function viewCurRate() public view returns (uint256) {\r\n    return curRate;\r\n    }    \r\n    function contractEthers() public view returns (uint256){\r\n        return address(this).balance;\r\n    }\r\n    //3C.2 delegating Price Approval to new user\r\n    function delegatePriceApproval(address _approver) external onlyOwner {\r\n        priceApprovers[_approver] = true;\r\n    }\r\n    //3C.2 Revoking approval from existing user\r\n    function revokePriceApproval(address _approver) external onlyOwner {\r\n        require(priceApprovers[_approver], \"The user doesn't exist or already been revoked\");\r\n        priceApprovers[_approver] = false;\r\n    }\r\n}\r\n",
  "sourcePath": "C:\\Users\\tariq\\Documents\\Trainings\\PIAIC\\Solidity\\ERC20-Truffle-UnitTesting\\contracts\\TariqToken3B.sol",
  "compiler": {
    "name": "solc",
    "version": "0.8.6+commit.11564f7e.Emscripten.clang"
  },
  "schemaVersion": "3.4.3",
  "updatedAt": "2021-10-06T05:04:07.876Z",
  "devdoc": {
    "kind": "dev",
    "methods": {
      "allowance(address,address)": {
        "details": "See {IERC20-allowance}."
      },
      "approve(address,uint256)": {
        "details": "See {IERC20-approve}. Requirements: - `spender` cannot be the zero address."
      },
      "balanceOf(address)": {
        "details": "See {IERC20-balanceOf}."
      },
      "decimals()": {
        "details": "Returns the number of decimals used to get its user representation. For example, if `decimals` equals `2`, a balance of `505` tokens should be displayed to a user as `5.05` (`505 / 10 ** 2`). Tokens usually opt for a value of 18, imitating the relationship between Ether and Wei. This is the value {ERC20} uses, unless this function is overridden; NOTE: This information is only used for _display_ purposes: it in no way affects any of the arithmetic of the contract, including {IERC20-balanceOf} and {IERC20-transfer}."
      },
      "decreaseAllowance(address,uint256)": {
        "details": "Atomically decreases the allowance granted to `spender` by the caller. This is an alternative to {approve} that can be used as a mitigation for problems described in {IERC20-approve}. Emits an {Approval} event indicating the updated allowance. Requirements: - `spender` cannot be the zero address. - `spender` must have allowance for the caller of at least `subtractedValue`."
      },
      "increaseAllowance(address,uint256)": {
        "details": "Atomically increases the allowance granted to `spender` by the caller. This is an alternative to {approve} that can be used as a mitigation for problems described in {IERC20-approve}. Emits an {Approval} event indicating the updated allowance. Requirements: - `spender` cannot be the zero address."
      },
      "name()": {
        "details": "Returns the name of the token."
      },
      "owner()": {
        "details": "Returns the address of the current owner."
      },
      "renounceOwnership()": {
        "details": "Leaves the contract without owner. It will not be possible to call `onlyOwner` functions anymore. Can only be called by the current owner. NOTE: Renouncing ownership will leave the contract without an owner, thereby removing any functionality that is only available to the owner."
      },
      "symbol()": {
        "details": "Returns the symbol of the token, usually a shorter version of the name."
      },
      "totalSupply()": {
        "details": "See {IERC20-totalSupply}."
      },
      "transfer(address,uint256)": {
        "details": "See {IERC20-transfer}. Requirements: - `recipient` cannot be the zero address. - the caller must have a balance of at least `amount`."
      },
      "transferFrom(address,address,uint256)": {
        "details": "See {IERC20-transferFrom}. Emits an {Approval} event indicating the updated allowance. This is not required by the EIP. See the note at the beginning of {ERC20}. Requirements: - `sender` and `recipient` cannot be the zero address. - `sender` must have a balance of at least `amount`. - the caller must have allowance for ``sender``'s tokens of at least `amount`."
      },
      "transferOwnership(address)": {
        "details": "Transfers ownership of the contract to a new account (`newOwner`). Can only be called by the current owner."
      }
    },
    "version": 1
  },
  "userdoc": {
    "kind": "user",
    "methods": {},
    "version": 1
  }
}